:060000000A128A11142906
:10000800F000030EF1000B1912200C1825208C1893
:100018002C20F10E8300F00E700E090003138312DA
:10002800063081000B11880127181E282808870030
:100038000814222829088700881422280130A706D6
:100048000800C3308F0040308E000C10A00A080052
:060058008C10890A08006B
:100200008A010A140F3982073F3406345B344F34B5
:1002100066346D347D3407347F346F3477347C3406
:1002200039345E34793471341F213021372144212F
:1002300052216221031383126F2183211C2903178A
:10024000831688018901031383168701081088101B
:100250000910031383128701081088100910080081
:10026000031383160F138F160F160F1408000313B2
:100270008316811281110111811001100313831261
:10028000063081000B11080003138312101390161F
:100290001016901190101014C3308F0040308E0053
:1002A0000C100800031383121217921612169215DF
:1002B00012159214121403138316F0309200910158
:1002C0008C010800031383160C148C14031383127F
:1002D0008B160B110C108C100B178B1708002008B5
:1002E000A200A301A30A0A30A20203187229230361
:1002F000A6000A302207A50025080021A80026082C
:100300000021A90008002008643C031D0800A0018A
:020310000800E3
:04400E00D420FF3F7C
:00000001FF
